:100000007DC0000096C0000094C0000092C00000B7
:1000100090C000008EC000008CC000008AC00000AC
:1000200088C0000086C0000084C0000086C30000B5
:1000300080C000007EC000007CC000007AC00000CC
:1000400078C0000076C0000074C0000072C00000DC
:1000500070C000006EC000006CC000006AC00000EC
:1000600068C0000066C0000064C0000062C00000FC
:1000700060C0000020034C005500460041002000F5
:100080004D006F007500730065002000440065009E
:100090006D006F0000001A034C005500460041003F
:1000A00020004C006900620072006100720079005B
:1000B00000000403090409022200010100C0320902
:1000C00004000001030102000921110100012212B4
:1000D0000007058103080005120110010000000857
:1000E000EB03412001000102000105010902A10109
:1000F0000901A100750895088102C0C011241FBE26
:10010000CFEFD2E0DEBFCDBF11E0A0E0B1E0E0EF85
:10011000F0E102C005900D92AC32B107D9F721E0B1
:10012000ACE2B1E001C01D92A134B207E1F71AD0F0
:10013000DDC766CF84B7877F84BF0FB6F894A895D4
:1001400080916000886180936000109260000FBE13
:1001500080E890E00FB6F89480936100909361007E
:100160000FBEDCC2E7DF789480E091E0E2D680E168
:1001700091E025D5E0D4F8CF0895089580E091E08E
:10018000C0D6E2EEF0E0808184608083089580E054
:1001900091E07CC580910E0190910F01009729F0AC
:1001A000019780930E0190930F0108950F931F9371
:1001B000CF93DF9300D000D0CDB7DEB709831A8389
:1001C00088E0F90111928A95E9F78901C901089639
:1001D0008B839C8380E191E008D5892B29F080E115
:1001E00091E028D5F80180830F5F1F4F8B819C81A0
:1001F0000817190779F788E0E981FA81808311826D
:1002000081E00F900F900F900F90DF91CF911F9191
:100210000F9108950895292F30E023303105D1F052
:1002200070F42130310579F122303105F9F482E2A0
:1002300090E026EB30E0FA012083318308952132EB
:10024000310531F12232310589F482E190E02AEE64
:1002500030E0F1CF282F30E0813061F022303105DD
:1002600079F0E2EBF0E02115310531F080E090E02B
:1002700020E0E1CFE6E9F0E0849190E09F01DBCF60
:10028000E4E7F0E0F9CF82E190E028ED30E0D3CF71
:1002900089E090E028EC30E0CECFAF92BF92CF92D1
:1002A000DF92EF92FF921F93CF93DF937C01EB01DC
:1002B0006A01CAD1182F811123C0C114D10439F0A9
:1002C000F60180819181C81BD90BE80EF91EA12C83
:1002D000B12C2097A9F08091E80085FD21C0809184
:1002E000E8008E778093E80026D4C114D10499F0F9
:1002F000F601808191818A0D9B1D8083918315E099
:10030000812FDF91CF911F91FF90EF90DF90CF90E1
:10031000BF90AF90089598D18115E9F2182FF0CFD2
:10032000F70181917F018093F1002197FFEFAF1AD0
:10033000BF0ACFCFFC0180913E0190913F0186170B
:10034000970720F06115710561F0CB0140E000973F
:1003500071F441110CC08091E80082FF34C080E04C
:1003600008958091E8008E778093E800EECF209189
:1003700037012115A1F12530A1F12091E80023FDDD
:100380002CC02091E80022FDE6CF2091E80020FF5C
:10039000DECF2091F20030E0009719F028303105CF
:1003A00058F041E02830310509F040E02091E800A4
:1003B0002E772093E800CBCF41914093F100019735
:1003C0002F5F3F4FE9CF80913701811541F0853094
:1003D00041F08091E80083FFBECF81E0089582E084
:1003E000089583E00895FC01CB01009739F58091D1
:1003F000E8008B778093E8008091E80080FF24C0BC
:1004000080E00895253011F483E008952091E800FC
:1004100023FD21C02091E80022FF10C02091F200AE
:10042000211529F02091F10021930197B9F720912E
:10043000E8002B772093E8000097F1F22091370134
:100440002111E0CF82E00895809137018115D1F329
:10045000853091F6D9CF81E00895FC0180913E016D
:1004600090913F018617970720F06115710561F0A3
:10047000CB0140E0009771F441110CC08091E8007D
:1004800082FF35C080E008958091E8008E778093E8
:10049000E800EECF209137012115A9F12530A9F10F
:1004A0002091E80023FD2DC02091E80022FDE6CF39
:1004B0002091E80020FFDECF2091F20030E000978D
:1004C00019F02830310558F041E02830310509F0A5
:1004D00040E02091E8002E772093E800CBCF4491B4
:1004E0004093F100319601972F5F3F4FE8CF809105
:1004F0003701811541F0853041F08091E80083FF9C
:10050000BDCF81E0089582E0089583E00895982F9B
:10051000953028F08F708093E90081E008959093E2
:10052000E900242F762F50E0981731F07091EC00FD
:100530002091ED005091F00021FD02C09F5FE8CFB7
:100540003091EB003E7F3093EB003091ED003D7F2A
:100550003093ED003091EB0031603093EB007093FD
:10056000EC002093ED005093F0002091EE0027FD69
:10057000E5CF80E008951F93CF93DF9300D00F92D3
:10058000CDB7DEB769838A839B8310E0B9811B13E3
:1005900002C081E011C0AA81BB819C91911107C06A
:1005A0001F5FEA81FB813596EA83FB83EFCF892FBA
:1005B0008F70853040F080E00F900F900F90DF91AA
:1005C000CF911F910895AA81BB811196ED91FD9164
:1005D0006D912C9156E0223008F452E028E030E092
:1005E00040E02E173F0768F04295407F452B62950B
:1005F000660F660F607C97FD616089DF8111D0CF47
:10060000DACF4F5F220F331FECCF8091380187FF85
:1006100013C08091E80082FF06C08091E8008B77CC
:100620008093E8000895809137018111F2CF0895F9
:10063000809137018115D9F38091E80080FFF8CFD0
:100640008091E8008E77ECCF2091E4003091E500B6
:1006500095E6A9012091EC00822F817020FF06C051
:100660008091E80080FF06C080E008952091E800B6
:1006700022FD1AC080913701811589F0853089F0FB
:100680008091EB0085FD0FC02091E4003091E500E2
:1006900042175307F9F29150E1F684E0089582E0A1
:1006A000089583E0089581E0089541D043D080917A
:1006B000D8008F778093D8008091D800806880938D
:1006C000D8008091D8008F7D8093D80084E089BDC8
:1006D00086E089BD09B400FEFDCF1092370110926B
:1006E0003601109234011092350142E060E080E062
:1006F0000EDF8091E1008E7F8093E1008091E20027
:1007000081608093E2008091E20088608093E20043
:100710008091E0008E7F8093E0000895E3E6F0E0B2
:1007200080818E7F808381E080934001BECF1092D4
:10073000E20008951092E10008951F920F920FB603
:100740000F9211242F933F934F935F936F937F9357
:100750008F939F93AF93BF93EF93FF938091E100AB
:1007600082FF0AC08091E20082FF06C08091E10012
:100770008B7F8093E1000EDD8091E10080FF17C048
:100780008091E20080FF13C08091E2008E7F809311
:10079000E2008091E20080618093E2008091D800C5
:1007A00080628093D80019BC10923701E6DC8091FA
:1007B000E10084FF27C08091E20084FF23C084E031
:1007C00089BD86E089BD09B400FEFDCF8091D800C7
:1007D0008F7D8093D8008091E1008F7E8093E1002F
:1007E0008091E2008F7E8093E2008091E200816040
:1007F0008093E200809136018115D9F184E08093E5
:100800003701BADC8091E10083FF22C08091E200D1
:1008100083FF1EC08091E100877F8093E10082E02A
:1008200080933701109236018091E1008E7F809392
:10083000E1008091E2008E7F8093E2008091E200EF
:1008400080618093E20042E060E080E060DE72D18F
:10085000FF91EF91BF91AF919F918F917F916F9198
:100860005F914F913F912F910F900FBE0F901F906E
:1008700018958091E30087FF02C083E0C0CF81E03C
:10088000BECF1F93CF93DF93CDB7DEB7AA970FB636
:10089000F894DEBF0FBECDBF88E391E0FC01019666
:1008A0002091F100208321E080349207B9F76FDCBA
:1008B0008091E80083FF10C0809138019091390148
:1008C000953009F4D4C000F5292F2D7F213009F48B
:1008D00087C0911509F45CC08091E80083FF0AC0CD
:1008E0008091E800877F8093E8008091EB00806230
:1008F0008093EB00AA960FB6F894DEBF0FBECDBF73
:10090000DF91CF911F910895983009F4E8C0993094
:1009100009F4F2C0963001F780588230E8F68091F1
:100920003A0190913B018C3D53E0950709F0C2C01C
:1009300083E08A838AE289834FB7F894DE011396B5
:1009400020E03EE051E2E32FF0E050935700849125
:1009500020FF03C082958F703F5F8F708A3008F44C
:10096000A7C0895C8D931D922F5F243161F74FBF23
:100970008091E800877F8093E8006AE270E0CE0112
:100980000196D8DC8091E8008B778093E800A4CFB3
:10099000803899F0823809F09FCF80913C018F70A8
:1009A000853008F099CF8093E9008091EB0085FBBA
:1009B000882780F91092E90006C080913401880FE1
:1009C00090913501892B9091E800977F9093E800F2
:1009D0008093F1001092F1008091E8008E7719C0A9
:1009E00081110BC080913A01813009F075CF9330AD
:1009F00009F080E08093340107C0823009F06CCFA9
:100A000080913A01811549F01092E9008091E80047
:100A1000877F8093E800F9DD5FCF80913C018F7084
:100A20002FEF280F243008F057CF8093E900209152
:100A3000EB0020FFE9CF933031F48091EB0080622E
:100A40008093EB00E1CF9091EB0090619093EB00ED
:100A500021E030E0A90101C0440F8A95EAF74093F4
:100A6000EA001092EA008091EB008860E9CF8111E2
:100A700033CF10913A011F778091E3008078812B6A
:100A80008093E3008091E800877F8093E800BDDDDC
:100A90008091E80080FFFCCF8091E3008068809324
:100AA000E30083E0111101C082E08093370114CF8D
:100AB000805D58CF60913C0170913D01AE014F5F68
:100AC0005F4FA9DBBC01892B09F406CF9091E800A8
:100AD000977F9093E80089819A81BFDC53CF80385B
:100AE00009F0FACE8091E800877F8093E80080913A
:100AF00036018093F10070CF8111EECE90913A01D2
:100B0000923008F0E9CE8091E800877F8093E8007A
:100B1000909336017ADD80913601811529F084E0C9
:100B2000809337012BDBD8CE8091E30087FDF7CF90
:100B300081E0F6CF0895CF9380913701811591F030
:100B40008091E900C091EC008F70C0FBCC27C7F901
:100B5000C82B1092E9008091E80083FD92DECF70EF
:100B6000C093E900CF91089520913701243029F5F1
:100B7000FC014489558966897789452B462B472B8B
:100B8000E1F081818F708093E9008091F200811102
:100B900002C080E008959091E8008091E8008E778F
:100BA0008093E80095FDF5CF4FDD811107C090914E
:100BB000E8009E779093E800089582E008952091E0
:100BC0003701243089F4FC01448955896689778985
:100BD000452B462B472B41F021812F702093E900B4
:100BE0002091E80020FDC0CF0895209137012430E6
:100BF000D1F4FC014489558966897789452B462BB8
:100C0000472B89F086818F708093E9008091E800FE
:100C100082FF09C08091F200811108C08091E80034
:100C20008B778093E80080E090E008958091F20057
:100C300090E0089520913701243019F08FEF9FEF55
:100C40000895FC014489558966897789452B462B8F
:100C5000472BA1F386818F708093E9008091E80093
:100C600082FFECCF8091F200811569F08091F10054
:100C700090E02091F200211105C02091E8002B772F
:100C80002093E80008958FEF9FEFF3CFAF92BF92CC
:100C9000CF92DF92EF92FF920F931F93CF93DF9348
:100CA00000D000D000D00F92CDB7DEB77C012DB7B9
:100CB0003EB72E833F838091E80083FF17C0F70182
:100CC000208180913C0190913D012817190671F413
:100CD00080913901893009F489C000F5823009F426
:100CE000FAC0833009F4C4C0813081F12E813F8184
:100CF0000FB6F8943EBF0FBE2DBF27960FB6F894DF
:100D0000DEBF0FBECDBFDF91CF911F910F91FF903E
:100D1000EF90DF90CF90BF90AF9008958A3009F4A4
:100D2000C0C08B3019F7809138018132F9F680917B
:100D3000E800877F8093E80068DC90913A0181E0C9
:100D4000911101C080E0F7018187D0CF80913801F7
:100D5000813A61F62DB73EB72C833D8319821A8202
:100D600080913A0110913B018B838085482F50E0A0
:100D7000281B31090FB6F8943EBF0FBE2DBF8DB7AB
:100D80009EB701966C0160E070E0A9D14FEF410F72
:100D90008E010F5F1F4F9601BE016D5F7F4FC70130
:100DA00005DAF70186819781009721F0408550E0B0
:100DB000B6018CD11092E9008091E800877F809382
:100DC000E8008B8181118093F10069817A81C601ED
:100DD000B1DA8091E8008B778093E8002C813D8127
:100DE0000FB6F8943EBF0FBE2DBF80CF8091380163
:100DF000813209F07BCF8DB79EB78C839D830091A4
:100E00003E0110913F01B0903A01A0903B01EDB737
:100E1000FEB7E01BF10B0FB6F894FEBF0FBEEDBF9F
:100E20002DB73EB72F5F3F4F69018091E800877F64
:100E30008093E800B801C901D6DA8091E8008E7786
:100E40008093E80021E030E0B11001C020E0021BF7
:100E5000130B2C0D3D1D4FEF4A0D6B2DC701DAD939
:100E60008C819D810FB6F8949EBF0FBE8DBF3ECF83
:100E700080913801813A09F039CF8091E800877F6D
:100E80008093E8008091E80080FFFCCFF701818526
:100E90008093F1008091E8008E778093E800B5DBC5
:100EA00025CF80913801813209F020CF8091E80070
:100EB000877F8093E800A9DB80913A0190913B0104
:100EC00036E0969587953A95E1F78C7F9370F70118
:100ED000848795870BCF80913801813A09F006CF3E
:100EE0008091E800877F8093E8008091E80080FF90
:100EF000FCCFF7018485958596958795969587957E
:100F0000C7CFCF93DF93FC01DC011A9686E0ED0199
:100F100019928A95E9F781E0818784EF91E08487CF
:100F2000958783E0848361E0CF010196DF91CF91C3
:100F300022CBAF92BF92CF92DF92EF92FF920F93AC
:100F40001F93CF93DF93CDB7DEB728970FB6F894F2
:100F5000DEBF0FBECDBF7C012DB73EB72E833F83D2
:100F600080913701843009F08CC08091E400909129
:100F7000E500F701228533852817390709F481C078
:100F800081818F708093E9008091E80085FF79C0AE
:100F90002DB73EB72C833D838085482F50E0EDB7B9
:100FA000FEB7E81BF1090FB6F894FEBF0FBEEDBF08
:100FB0002DB73EB72F5F3F4F69011B8219821A82FE
:100FC00060E070E0C9018BD08E010F5F1F4F96016A
:100FD00040E0BE016D5F7F4FC701E8D88887F70109
:100FE00084859585892B29F011E086859785892B45
:100FF00009F010E0F701A680B78000E0A114B10469
:1010000079F049815A81B501C60153D001E0892B9D
:1010100009F400E0F701408550E0B601C50156D063
:1010200089819A81892BF9F0F885F11104C00111A9
:1010300002C01115C1F0F7018485958586879787D1
:1010400081818F708093E9008B8181118093F10001
:1010500069817A8140E050E0C6011FD98091E800A3
:101060008E778093E8008091E4009091E500F7018D
:10107000828793872C813D810FB6F8943EBF0FBEC7
:101080002DBF8E819F810FB6F8949EBF0FBE8DBF7E
:1010900028960FB6F894DEBF0FBECDBFDF91CF917B
:1010A0001F910F91FF90EF90DF90CF90BF90AF9086
:1010B0000895FB01DC0104C08D910190801921F499
:1010C00041505040C8F7881B990B0895FB01DC0183
:1010D00002C001900D9241505040D8F70895DC01B4
:1010E00001C06D9341505040E0F70895F894FFCF50
:1010F0000081080000012C01080000000000000031
:1011000000811000000102100000018308000001AE
:0C111000000000000000000000000000D3
:00000001FF
