:1000000091C00000AAC00000A8C00000A6C0000067
:10001000A4C00000A2C00000A0C000009EC000005C
:100020009CC000009AC0000098C0000087C3000078
:1000300094C0000092C0000090C000008EC000007C
:100040008CC000008AC0000088C0000086C000008C
:1000500084C0000082C0000080C000007EC000009C
:100060007CC000007AC0000078C0000076C00000AC
:1000700074C0000020034C005500460041002000E1
:100080004D006F007500730065002000440065009E
:100090006D006F0000001A034C005500460041003F
:1000A00020004C006900620072006100720079005B
:1000B00000000403090409022200010100C0320902
:1000C0000400000103010200092111010001223A8C
:1000D0000007058103080005120110010000000857
:1000E000EB03412001000102000105010902A10109
:1000F0000901A1000509190129031500250195032E
:1001000075018102950175058101050109300931EB
:1001100016FFFF26010036FFFF4601009502750815
:100120008106C0C011241FBECFEFD2E0DEBFCDBF1D
:1001300011E0A0E0B1E0EEECFFE002C005900D920E
:10014000A031B107D9F721E0A0E1B1E001C01D92D3
:10015000A032B207E1F729D038C752CF88274B9990
:1001600083950895811511F05A9A08955A98089523
:1001700084B7877F84BF0FB6F894A89580916000FC
:10018000886180936000109260000FBE80E890E06C
:100190000FB6F89480936100909361000FBEBFD2B8
:1001A000529A5A9A53985B980895E2DF789480E0C7
:1001B00091E02ED6C1D4FBCF0895089580E091E060
:1001C0000FD6E2EEF0E0808184608083089580E0C5
:1001D00091E0CBC480910E0190910F01009729F01E
:1001E000019780930E0190930F0108950F931F9331
:1001F000CF93DF93E901B2DF888319821A8283E00B
:10020000F801808311828881ADDF81E0DF91CF9199
:100210001F910F9108950895292F30E02330310563
:10022000D1F070F42130310579F122303105F9F443
:1002300082E290E026EB30E0FA01208331830895DA
:100240002132310531F12232310589F48AE390E01F
:100250002AEE30E0F1CF282F30E0813061F02230FB
:10026000310579F0E2EBF0E02115310531F080E065
:1002700090E020E0E1CFE6E9F0E0849190E09F019A
:10028000DBCFE4E7F0E0F9CF82E190E028ED30E069
:10029000D3CF89E090E028EC30E0CECFAF92BF9290
:1002A000CF92DF92EF92FF921F93CF93DF937C0167
:1002B000EB016A01CAD1182F811123C0C114D104E6
:1002C00039F0F60180819181C81BD90BE80EF91E27
:1002D000A12CB12C2097A9F08091E80085FD21C0C8
:1002E0008091E8008E778093E80026D4C114D10471
:1002F00099F0F601808191818A0D9B1D8083918305
:1003000015E0812FDF91CF911F91FF90EF90DF904B
:10031000CF90BF90AF90089598D18115E9F2182F32
:10032000F0CFF70181917F018093F1002197FFEFDA
:10033000AF1ABF0ACFCFFC0180911D0190911E0121
:100340008617970720F06115710561F0CB0140E039
:10035000009771F441110CC08091E80082FF34C015
:1003600080E008958091E8008E778093E800EECFDA
:10037000209116012115A1F12530A1F12091E8006D
:1003800023FD2CC02091E80022FDE6CF2091E8005B
:1003900020FFDECF2091F20030E0009719F02830E6
:1003A000310558F041E02830310509F040E0209156
:1003B000E8002E772093E800CBCF41914093F100E5
:1003C00001972F5F3F4FE9CF80911601811541F0D2
:1003D000853041F08091E80083FFBECF81E0089531
:1003E00082E0089583E00895FC01CB01009739F580
:1003F0008091E8008B778093E8008091E80080FF8F
:1004000024C080E00895253011F483E00895209100
:10041000E80023FD21C02091E80022FF10C02091B8
:10042000F200211529F02091F10021930197B9F7ED
:100430002091E8002B772093E8000097F1F22091BB
:1004400016012111E0CF82E00895809116018115F7
:10045000D1F3853091F6D9CF81E00895FC018091E8
:100460001D0190911E018617970720F061157105F7
:1004700061F0CB0140E0009771F441110CC0809114
:10048000E80082FF35C080E008958091E8008E7713
:100490008093E800EECF209116012115A9F12530B7
:1004A000A9F12091E80023FD2DC02091E80022FD54
:1004B000E6CF2091E80020FFDECF2091F20030E06F
:1004C000009719F02830310558F041E02830310507
:1004D00009F040E02091E8002E772093E800CBCF90
:1004E00044914093F100319601972F5F3F4FE8CF41
:1004F00080911601811541F0853041F08091E8002E
:1005000083FFBDCF81E0089582E0089583E00895E0
:10051000982F953028F08F708093E90081E008953E
:100520009093E900242F762F50E0981731F07091C6
:10053000EC002091ED005091F00021FD02C09F5F82
:10054000E8CF3091EB003E7F3093EB003091ED002F
:100550003D7F3093ED003091EB0031603093EB0044
:100560007093EC002093ED005093F0002091EE008A
:1005700027FDE5CF80E008951F93CF93DF9300D050
:100580000F92CDB7DEB769838A839B8310E0B98170
:100590001B1302C081E011C0AA81BB819C91911103
:1005A00007C01F5FEA81FB813596EA83FB83EFCFAB
:1005B000892F8F70853040F080E00F900F900F9062
:1005C000DF91CF911F910895AA81BB811196ED9182
:1005D000FD916D912C9156E0223008F452E028E014
:1005E00030E040E02E173F0768F04295407F452BF2
:1005F0006295660F660F607C97FD616089DF8111EF
:10060000D0CFDACF4F5F220F331FECCF809117018D
:1006100087FF13C08091E80082FF06C08091E80048
:100620008B778093E8000895809116018111F2CFB5
:100630000895809116018115D9F38091E80080FF1B
:10064000F8CF8091E8008E77ECCF2091E4003091D4
:10065000E50095E6A9012091EC00822F817020FF32
:1006600006C08091E80080FF06C080E008952091D8
:10067000E80022FD1AC080911601811589F08530AD
:1006800089F08091EB0085FD0FC02091E40030914E
:10069000E50042175307F9F29150E1F684E008951E
:1006A00082E0089583E0089581E0089541D043D029
:1006B0008091D8008F778093D8008091D80080688F
:1006C0008093D8008091D8008F7D8093D80084E0FB
:1006D00089BD86E089BD09B400FEFDCF10921601E8
:1006E00010921501109213011092140142E060E083
:1006F00080E00EDF8091E1008E7F8093E1008091A9
:10070000E20081608093E2008091E2008860809343
:10071000E2008091E0008E7F8093E0000895E3E6A0
:10072000F0E080818E7F808381E080931F01BECFC7
:100730001092E20008951092E10008951F920F9226
:100740000FB60F9211242F933F934F935F936F93A4
:100750007F938F939F93AF93BF93EF93FF9380917A
:10076000E10082FF0AC08091E20082FF06C0809112
:10077000E1008B7F8093E1002DDD8091E10080FF1F
:1007800017C08091E20080FF13C08091E2008E7F4D
:100790008093E2008091E20080618093E20080918A
:1007A000D80080628093D80019BC1092160105DD34
:1007B0008091E10084FF27C08091E20084FF23C084
:1007C00084E089BD86E089BD09B400FEFDCF80913B
:1007D000D8008F7D8093D8008091E1008F7E809338
:1007E000E1008091E2008F7E8093E2008091E20040
:1007F00081608093E200809115018115D9F184E038
:1008000080931601D9DC8091E10083FF22C08091A2
:10081000E20083FF1EC08091E100877F8093E100AA
:1008200082E080931601109215018091E1008E7F85
:100830008093E1008091E2008E7F8093E2008091BE
:10084000E20080618093E20042E060E080E060DEF0
:1008500072D1FF91EF91BF91AF919F918F917F9155
:100860006F915F914F913F912F910F900FBE0F901D
:100870001F9018958091E30087FF02C083E0C0CFEE
:1008800081E0BECF1F93CF93DF93CDB7DEB7AA979A
:100890000FB6F894DEBF0FBECDBF87E191E0FC013B
:1008A00001962091F100208321E08F319207B9F762
:1008B0008EDC8091E80083FF10C080911701909139
:1008C0001801953009F4D4C000F5292F2D7F21306F
:1008D00009F487C0911509F45CC08091E80083FF9A
:1008E0000AC08091E800877F8093E8008091EB0048
:1008F00080628093EB00AA960FB6F894DEBF0FBE1D
:10090000CDBFDF91CF911F910895983009F4E8C0D1
:10091000993009F4F2C0963001F780588230E8F639
:100920008091190190911A018C3D53E0950709F0CF
:10093000C2C083E08A838AE289834FB7F894DE01DC
:10094000139620E03EE051E2E32FF0E05093570091
:10095000849120FF03C082958F703F5F8F708A3033
:1009600008F4A7C0895C8D931D922F5F243161F735
:100970004FBF8091E800877F8093E8006AE270E0D3
:10098000CE010196D8DC8091E8008B778093E80057
:10099000A4CF803899F0823809F09FCF80911B0155
:1009A0008F70853008F099CF8093E9008091EB003B
:1009B00085FB882780F91092E90006C08091130119
:1009C000880F90911401892B9091E800977F909364
:1009D000E8008093F1001092F1008091E8008E779A
:1009E00019C081110BC080911901813009F075CFB8
:1009F000933009F080E08093130107C0823009F042
:100A00006CCF80911901811549F01092E900809115
:100A1000E800877F8093E800F9DD5FCF80911B01BC
:100A20008F702FEF280F243008F057CF8093E90004
:100A30002091EB0020FFE9CF933031F48091EB005F
:100A400080628093EB00E1CF9091EB0090619093F6
:100A5000EB0021E030E0A90101C0440F8A95EAF7DC
:100A60004093EA001092EA008091EB008860E9CFA1
:100A7000811133CF109119011F778091E3008078A5
:100A8000812B8093E3008091E800877F8093E800CA
:100A9000BDDD8091E80080FFFCCF8091E30080689D
:100AA0008093E30083E0111101C082E0809316017E
:100AB00014CF805D58CF60911B0170911C01AE0175
:100AC0004F5F5F4FA9DBBC01892B09F406CF9091E2
:100AD000E800977F9093E80089819A81BFDC53CF2B
:100AE000803809F0FACE8091E800877F8093E80093
:100AF000809115018093F10070CF8111EECE90911D
:100B00001901923008F0E9CE8091E800877F809348
:100B1000E800909315017ADD80911501811529F087
:100B200084E0809316014ADBD8CE8091E30087FDF4
:100B3000F7CF81E0F6CF0895CF938091160181150C
:100B400091F08091E900C091EC008F70C0FBCC2740
:100B5000C7F9C82B1092E9008091E80083FD92DE6E
:100B6000CF70C093E900CF910895AF92BF92CF921A
:100B7000DF92EF92FF920F931F93CF93DF9300D0FA
:100B800000D000D00F92CDB7DEB77C012DB73EB7B5
:100B90002E833F838091E80083FF17C0F7012081F7
:100BA00080911B0190911C012817190671F4809106
:100BB0001801893009F489C000F5823009F4FAC0BF
:100BC000833009F4C4C0813081F12E813F810FB69A
:100BD000F8943EBF0FBE2DBF27960FB6F894DEBF28
:100BE0000FBECDBFDF91CF911F910F91FF90EF907E
:100BF000DF90CF90BF90AF9008958A3009F4C0C0C5
:100C00008B3019F7809117018132F9F68091E80055
:100C1000877F8093E800FADC9091190181E09111BF
:100C200001C080E0F7018187D0CF80911701813A20
:100C300061F62DB73EB72C833D8319821A828091CD
:100C4000190110911A018B838085482F50E0281BD1
:100C500031090FB6F8943EBF0FBE2DBF8DB79EB7BA
:100C600001966C0160E070E0A9D14FEF410F8E0159
:100C70000F5F1F4F9601BE016D5F7F4FC701B6DA50
:100C8000F70186819781009721F0408550E0B601F9
:100C90008CD11092E9008091E800877F8093E80072
:100CA0008B8181118093F10069817A81C60143DBD8
:100CB0008091E8008B778093E8002C813D810FB60E
:100CC000F8943EBF0FBE2DBF80CF809117018132B7
:100CD00009F07BCF8DB79EB78C839D8300911D015A
:100CE00010911E01B0901901A0901A01EDB7FEB746
:100CF000E01BF10B0FB6F894FEBF0FBEEDBF2DB792
:100D00003EB72F5F3F4F69018091E800877F809356
:100D1000E800B801C90168DB8091E8008E77809314
:100D2000E80021E030E0B11001C020E0021B130B0D
:100D30002C0D3D1D4FEF4A0D6B2DC7016CDA8C81D8
:100D40009D810FB6F8949EBF0FBE8DBF3ECF8091A0
:100D50001701813A09F039CF8091E800877F8093AD
:100D6000E8008091E80080FFFCCFF7018185809347
:100D7000F1008091E8008E778093E80047DC25CF72
:100D800080911701813209F020CF8091E800877FA0
:100D90008093E8003BDC8091190190911A0136E0C4
:100DA000969587953A95E1F78C7F9370F701848744
:100DB00095870BCF80911701813A09F006CF80917A
:100DC000E800877F8093E8008091E80080FFFCCFF7
:100DD000F701848595859695879596958795C7CFD4
:100DE000CF93DF93FC01DC011A9686E0ED011992A6
:100DF0008A95E9F781E0818784EF91E08487958780
:100E000083E0848361E0CF010196DF91CF91B4CB81
:100E1000AF92BF92CF92DF92EF92FF920F931F9308
:100E2000CF93DF93CDB7DEB728970FB6F894DEBF28
:100E30000FBECDBF7C012DB73EB72E833F8380917F
:100E40001601843009F08CC08091E4009091E50097
:100E5000F701228533852817390709F481C081817C
:100E60008F708093E9008091E80085FF79C02DB7ED
:100E70003EB72C833D838085482F50E0EDB7FEB709
:100E8000E81BF1090FB6F894FEBF0FBEEDBF2DB7FA
:100E90003EB72F5F3F4F69011B8219821A8260E0C3
:100EA00070E0C9018BD08E010F5F1F4F960140E0AB
:100EB000BE016D5F7F4FC70199D98887F70184858F
:100EC0009585892B29F011E086859785892B09F076
:100ED00010E0F701A680B78000E0A114B10479F01A
:100EE00049815A81B501C60153D001E0892B09F42B
:100EF00000E0F701408550E0B601C50156D0898178
:100F00009A81892BF9F0F885F11104C0011102C012
:100F10001115C1F0F70184859585868797878181B2
:100F20008F708093E9008B8181118093F10069813A
:100F30007A8140E050E0C601B1D98091E8008E7717
:100F40008093E8008091E4009091E500F7018287AA
:100F500093872C813D810FB6F8943EBF0FBE2DBF05
:100F60008E819F810FB6F8949EBF0FBE8DBF2896CD
:100F70000FB6F894DEBF0FBECDBFDF91CF911F91AA
:100F80000F91FF90EF90DF90CF90BF90AF900895BA
:100F9000FB01DC0104C08D910190801921F44150C6
:100FA0005040C8F7881B990B0895FB01DC0102C073
:100FB00001900D9241505040D8F70895DC0101C0D6
:0E0FC0006D9341505040E0F70895F894FFCF34
:100FCE000081080000011001030000000000000075
:00000001FF
